:020000040800F2
:10000000080A00204502000807390008AF3600083A
:1000100005390008311A0008093F000800000000F7
:100020000000000000000000000000000B39000884
:10003000151B000800000000093900080D390008F0
:100040005F0200085F0200085F0200085F0200080C
:100050005F0200085F0200085F0200085F020008FC
:100060005F0200085F0200085F0200085F020008EC
:100070005F0200085F0200085F0200085F020008DC
:10008000351A0008411A00085F0200085F020008E4
:100090005F0200085F0200085F0200085F020008BC
:1000A0005F0200085F0200085F0200085F020008AC
:1000B0005F0200085F0200085F0200085F0200089C
:1000C0005F0200085F0200085F0200085F0200088C
:1000D0005F020008F13E0008FD3E00085F020008D4
:1000E0005F0200085F0200085F0200085F0200086C
:1000F0005F0200085F0200085F0200085F0200085C
:100100005F0200085F0200085F0200085F0200084B
:100110005F0200085F0200085F0200085F0200083B
:100120005F0200085F0200084D1A00085F02000825
:10013000591A00085F0200085F0200085F02000809
:100140005F0200085F0200085F0200085F0200080B
:100150005F0200085F020008651A00085F020008DD
:100160005F0200085F0200085F0200085F020008EB
:100170005F0200085F0200085F0200080000000044
:100180005F0200085F02000800F002F800F04AF881
:100190000AA090E8000C82448344AAF10107DA45E2
:1001A00001D100F03FF8AFF2090EBAE80F0013F0EA
:1001B000010F18BFFB1A43F001031847E448000081
:1001C00004490000103A24BF78C878C1FAD8520711
:1001D00024BF30C830C144BF04680C6070470000C1
:1001E0000023002400250026103A28BF78C1FBD840
:1001F000520728BF30C148BF0B6070471FB504F0DD
:1002000069FB00F0AFFC04000020002104F02AF993
:10021000401C60600020002104F00EF9E0601FBD6A
:1002200010B510BD00F0AAF91146FFF7E7FF04F082
:1002300091F800F04DFC03B4FFF7F2FF03BC00F0AF
:1002400007FD00000948804709480047FEE7FEE730
:10025000FEE7FEE7FEE7FEE7FEE7FEE7FEE7FEE776
:1002600004480549054A064B70470000A5390008B7
:100270008901000808040020080A00200806002060
:100280000806002053EA020C00F069802DE9F04BCB
:100290004FF00006002B1FBFB3FA83F503FA05F4F5
:1002A00024FA05F65E4012BF1643B2FA82F502FA4E
:1002B00005F4C5F120051EBF22FA05FC44EA0C0432
:1002C000203556EA044C4FEA144418BF641C4FF022
:1002D00000084FF00009904271EB030C39D300295C
:1002E00019BFB1FA81F701FA07F6B0FA80F700FA00
:1002F00007F6C7F120071EBF20FA07FC46EA0C06E6
:100300002037B6FBF4FCA7EB0507103F07F01F0BE7
:10031000CBF120060CFA0BFB2CFA06F644BFB346D1
:100320000026202FA4BF5E464FF0000B5BEA060CB0
:1003300008BF4FF0010B19EB0B09ABFB027C48EB3C
:100340000608C01B06FB02CC0BFB03CC71EB0C01B7
:10035000C1E70B46024641464846BDE8F08B13B55F
:100360004FF000004FF00001AFF30080BDE81C40EB
:10037000704740EA010370B59B072ED14FF001365C
:10038000042A2AD308C810C99D1B9D43121F15EAD1
:10039000C61517D0D8B2E1B2401A50EA056110D1A3
:1003A00098B2A1B2401A50EA05410AD123F07F4029
:1003B00024F07F41401A50EA052102D1180EA0EB2B
:1003C000146070BDA342DBD018BA21BA884201D9AB
:1003D000012070BD4FF0FF3070BD0AB9002070BD24
:1003E00010F8013B11F8014B63B1A3420AD1521E30
:1003F00008D010F8013B11F8014B1BB1A34201D109
:10040000521EEDD1181B70BD4FF0000200B513460F
:1004100094469646203922BFA0E80C50A0E80C5024
:10042000B1F12001BFF4F7AF090728BFA0E80C50D5
:1004300048BF0CC05DF804EB890028BF40F8042BCE
:1004400008BF704748BF20F8022B11F0804F18BF3B
:1004500000F8012B704770477047704710B500F0E7
:100460005BF8006810BD10B5044600F055F8046054
:1004700010BD00000FB4002300B589B00CA9009195
:100480000B99CB60214B7B440693214B7B44079314
:1004900004236FF00042CDE901321E4A7A446B46D4
:1004A00008920246002004F082FA09B05DF814FBBD
:1004B00070B506464FF0FF3015460C46324686B002
:1004C0000091CDE9010169460020049004A8FFF7DE
:1004D000D1FF02460498211825B108B1084600E072
:1004E00020462860049800280DD0002A02DD0098DC
:1004F000884208D03246081B69460094CDE90104C1
:1005000004A8FFF7B7FF06B070BD0000A900000007
:10051000C10000008100000000487047A8030020CF
:1005200010B5044600F050F80068005D00F00100CE
:1005300010BD426842B1016811F8013B23B1521E5F
:10054000C0E90012184670470121C160881E70473B
:1005500042685AB1C368016843B983688B4205D0C9
:10056000491E521CC0E90012002070474FF0FF30B6
:100570007047000000487047A80300207546FFF749
:10058000F9FFAE4605006946534620F00700854650
:1005900018B020B5FFF764FEBDE820404FF000061C
:1005A0004FF000074FF000084FF0000B21F007015B
:1005B000AC46ACE8C009ACE8C009ACE8C009ACE89E
:1005C000C0098D467047000010B500F0CBFA001D41
:1005D00010BD00BF913E00002DE9FF4F06468BB0D5
:1005E0000878FF2806D0491C2D2805D000244FF09C
:1005F000000908E000200CE00124F8E709EB89037A
:10060000491C00EB43090878FF28F7D114B1C9F160
:1006100000008146107800252C46AA4629462D2840
:1006200001D02B2804D1521C2D2813D00020824643
:100630008B461078FF280FD04FF0000C0A21521C77
:10064000A5FB017804FB018105FB0C11C5194BEBDF
:100650000104EEE70120EAE7002108464FF0000020
:10066000BAF1000F02D000EB80004008C0F38157C0
:10067000012F01DD4FF0FF370E9955EA040009EB19
:1006800001080BD04FF0020918F5FA7F16DA4FEA8D
:10069000CA70002F706008DD012007E04FEACA70C1
:1006A000C6E900B00FB0BDE8F08F00203060FFF762
:1006B00033FFC0F800901821084616E0B8F5FA7F1D
:1006C00018DD002F02DAF748784401E0F648784454
:1006D000D0E90010C6E9001040EACA707060FFF768
:1006E0001BFFC0F80090142108460FB0BDE8F04F82
:1006F00004F0FAB8002108464FF00000B8F10001FC
:10070000099002DAC7F1000200E03A4601DAC8F1C6
:10071000000106A800F02AFA06AB93E8070003AB35
:1007200083E8070044F23E005BEA0401009058466B
:1007300004D144F21E012C465D460091210C0904AF
:10074000014306D10099240444EA15442D041039CC
:10075000009104F07F41014306D10099240244EA4C
:1007600015642D020839009104F07041014306D14F
:100770000099240144EA15742D01091F009104F029
:100780004041014306D10099A40044EA9574AD00AC
:10079000891E009104F00041084304D100986D19AE
:1007A0006441401E00904FF001033A466846B8F19C
:1007B000000FCDE9014503A902DD00F026FF01E0AD
:1007C00000F0F9FEBAF1000F04460D4601D084F0A6
:1007D0000044002108464FF00000099940F2FF77DD
:1007E000484010F00C0F07D124F00040284303D0FC
:1007F000C4F30A50B84212D1FFF78EFEC0F8009041
:10080000C4F30A50B8420AD1A8487844D0E900108D
:10081000C6E9001004F000410843706042E7C6E9F1
:1008200000543FE72DE9FF4F1F464FF0000A4FF0FD
:10083000FF38454691B0D7E90146CDF83CA000F01D
:1008400091F9C0680168405C1090B96912986D1CFC
:100850008847396A814688470028F6D1B9F1FF3FB9
:100860000AD0002E24F4D06411DDB9F12B0F08D08A
:10087000B9F12D0F0BD102E0404615B013E744F457
:100880008064B96912986D1C8847761E81466005A0
:1008900004A901D52D2000E02B20002E01F1010B31
:1008A0000DF130088DF810003FDDB9F1690F08D067
:1008B000B9F1490F05D0B9F16E0F02D0B9F14E0F61
:1008C0001CD13B4601A8009580E85002DDE91212D8
:1008D0006FF0020004F06FF8C11CCED10EE0B969D0
:1008E00012986D1C884781461398761E44F4007454
:1008F00005600F98401C002E0F9016DDB9F1300FE7
:10090000EDD0B9F1780F02D0B9F1580F0DD10F9891
:1009100001280AD13B46CDE90054DDE91212001F3F
:10092000029604F046F8C11CA7D1109989453ED122
:1009300044F0800406E01399681CAAF1010A44F40B
:1009400000740860B9696D1C1298761E88473028BB
:100950008146F0D02BE01099894505D1200603D4BB
:10096000761E44F0800418E0484603F014FC08B3F7
:10097000761E0DF123018B4544F4007408D2A9F1D1
:1009800030000BF8010B200607D5AAF1010003E0A7
:10099000200602D40AF101008246A00502D513996F
:1009A000681C0860B96912986D1C88478146002E42
:1009B000D1DC53E0002E51DDB9F1650F02D0B9F161
:1009C000450F4BD1A00549D5B9696D1C1298761E0B
:1009D00024F440748847002E81460CDD2B2804D077
:1009E000B9F12D0F07D144F48074B96912986D1CC8
:1009F0008847761E8146E00501D52D2100E02B2198
:100A000008F8011BCDF8008021E0761E0DF13901B8
:100A1000884544F400740CD2A9F1300010F0FF00B6
:100A200088F8000002D10099884509D908F1010829
:100A300006E0E00501D51E4801E042F20F70824653
:100A4000B96912986D1C8847814613980560002E7D
:100A500004DD484603F09FFB0028D6D1F9691298BF
:100A60008847FF2053468BF8000088F800000020DC
:100A70000A900B9004AA0CA90AA8FFF7ADFDA005E7
:100A800002D46FF00100F8E614F0240F12D0E00752
:100A90001CD13868DDE90A12031D3B600068C0E91B
:100AA000001213E0FC430000EE430000B2420000DD
:100AB000F1D8FFFF0AA9684603F05AFBE00705D109
:100AC0003868009A011D3960006802602846D4E643
:100AD00010B50446AFF300802046BDE81040FFF794
:100AE000AABB00004FF0013C50F8042B51F8043B26
:100AF0009A4221D1A2EB0C03934313EACC1317D1F2
:100B000050F8042B51F8043B9A4215D1A2EB0C0388
:100B1000934313EACC130BD150F8042B51F8043B48
:100B20009A4209D1A2EB0C03934313EACC13DBD016
:100B30004FF00000704700BFD01A01BAB1FA81F13E
:100B400001F0180122FA01F0CB40C1F12001DBB223
:100B5000C0B2C01A2CFA01F3D11A914311EAC311A1
:100B6000E6D1704700487047C80300202DE9F047E0
:100B7000814616468AB0354878440DC88DE80D0088
:100B800032487844801C03AC0DC884E80D0041F65F
:100B90009B300844372190FBF1F290FBF1F5A5F171
:100BA000800501FB12041B3C02D56442012000E0D9
:100BB0000020DFF898A080460027FA44AAF1BE0A78
:100BC0000EE0E0070AD03246684607EB47010123F2
:100BD0000AEB810100F004FD8DE8070064107F1C22
:100BE000002CEED1194F7F44AE3F19E0E80715D035
:100BF00007EB04100DF1180A90E80E008AE80E00C9
:100C0000C068F04201D1981908903246012306A924
:100C100003A800F0E5FC03AB83E807006D10641C3B
:100C2000002DE3D14FF0010332466946B8F1000FC1
:100C300003A802D000F0AAFC01E000F0D1FCC9E951
:100C40000001C9F808200AB0BDE8F0870C3F000099
:100C500001491820ABBEFEE7260002002DE9FF4F38
:100C60001F464FF03C0987B04FF00042DDE91410F9
:100C700001F10108DDF858A002EA4050039000207D
:100C800005908346054604460490B969461E0898B7
:100C90008847AAF1010A0290BAF1000F3BDD0298E1
:100CA0002E2815D0102100F017FA00282EDB4FF067
:100CB000010B0599014317D0B9F1000F0BDB4A4630
:100CC000C11700F0F6F905430C43A9F1040905E04A
:100CD000012004900BE008B145F0010501200590CA
:100CE000049820B9361D02E0049800B1361FB96996
:100CF000089808F101088847BBF1000FAAF1010A22
:100D00000290C9D00999C1F80080C5E702987028FF
:100D100008D0502806D0F96908988847BBF1000F21
:100D200014D04FE0002002900120BBF1000F04908E
:100D300009D0B969089808F101088847AAF10109A2
:100D4000B9F1000F07DCF969089888476FF00100D6
:100D50000BB0BDE8F08F2B2804D02D280CD14FF01C
:100D6000FF300490B969089808F101088847A9F193
:100D70000109B9F1000FE6DD411CE4D00A2100F0C1
:100D8000ABF90028DFDB029908F1010801EB8101D2
:100D900000EB41000290B969089888470A2100F0E9
:100DA0009BF9099AA9F10109B9F1000FC2F8008075
:100DB00001DD0028E7DAF969089888470499029864
:100DC00000FB016655EA040004D004F0404109002C
:100DD00002D006E0039898E0A40044EA9574AD00C0
:100DE000B61E04F00041080002D16D196441761E60
:100DF000159810F0240F03D04FF00B095C4803E066
:100E00004FF028096FF07D008246564507DAAAEBBD
:100E100006018944B9F1410F01DD4FF0410901207C
:100E20000021A9F1010200F044F9024628400B46D6
:100E30002140084301D0012100E00021501E029111
:100E400043F1FF3128402140084301D0012000E058
:100E500000200299834651EA0B014FD00021084639
:100E60004FF00000039900F4400039B100EB80001E
:100E70004FF4400100EBD07001EA600080150128BA
:100E800002DD4FF0FF3000E013D0401C36D0029856
:100E900060B3BBF1000F0CD14A460120002100F0E5
:100EA00008F928402140084301D0012000E000203B
:100EB000E0B101204A46002100F0FBF8034640194A
:100EC0000A4661412D1A8C4111D3B9F1400F09DD59
:100ED000159810F0240F02D0AAF1340603E0AAF10D
:100EE000170600E0761C00254FF0004406E05B1E6C
:100EF00042F1FF3220EA030521EA0204CAF10100AF
:100F0000B04206DA1B490398084301900020009084
:100F10000EE0039AC4F3D321E80A0A43164940EAD3
:100F200044500A433146CDE90002684603F029F9EE
:100F3000159810F0240F0BD01598C00715D13868FC
:100F4000DDE90012031D3B600068C0E900120CE0FF
:100F500002A8694603F00CF91598C00705D1386856
:100F6000029A011D3960006802604046F0E6000008
:100F700002FCFFFF0000F07F0000F03F2DE9FF4F73
:100F800092461D4685B04FF00041DDE9124BDDE988
:100F900014727F1E01EA4B50414940F0FF4940EA7C
:100FA0000108002122F020004928049102D04E2897
:100FB00028D04CE03BA0012607C88DE80700A969AE
:100FC0000698641C88477F1E014606D41DF806005B
:100FD00018B121F0200181420BD0E96906988847B9
:100FE000032E34D0082E32D06FF0010009B0BDE8D6
:100FF000F08F761C032E01D0082EE0D1601CCAF8B9
:101000000000DCE7A9690698641C88477F1E2AD483
:1010100020F02000412826D1A9690698641C884741
:101020007F1E20D420F020004E281CD1A9690698EC
:10103000641C88477F1E48F4002849F48009CAF8D8
:10104000004001D4282806D0E969069888475FEA5D
:10105000CB7012D022E0A9690698641C88477F1ED5
:1010600001D4002803DAE96906988847BCE72928F3
:10107000F1D1641CCAF80040E9E71BF0240F07D047
:1010800028680499031D2B600068C0E9001805E07A
:101090002868021D2A600068C0F800902046A5E775
:1010A0000000F07F494E46494E4954590000000067
:1010B0007047B2F120030AD5C2F1200301FA02F110
:1010C00020FA03F300FA02F041EA0301704700FA44
:1010D00003F14FF0000070473A2800D2303820F07A
:1010E0002002412A01D3A2F13700884201D34FF0F8
:1010F000FF30704720F07F4C80EA030023F07F47E9
:10110000ACEB070303F57C5300F0004003F1FF0351
:101110002DE980494FEA154B09B44FEA144325EAFB
:101120000B4E24EA03480FF2042606EB1327490866
:101130003E785FEA320203FB0667C7F5000707FB4C
:1011400006F64FEA54374FEAD64606F1020607FB89
:10115000066CCCF1005C4FEA1C472CEA074C07FBFD
:1011600006F40CFB06F504EB15464FEA961634BF61
:1011700000204FF000404FEAD13706FB07FC4FEA52
:101180001C4C0CFB0BF7D21B03FB0CF761EB0701AC
:101190000CFB0EF7B0EB074072EB17420CFB08F7A5
:1011A00034BFA2EB0742B2EB074261EB17414FEAB3
:1011B0000C444FEA910706FB07FC4FEA1C4C0CFB62
:1011C0000BF7B0EBC74072EB573203FB0CF734BFA1
:1011D000A2EBC742B2EBC74261EB57310CFB0EF7F3
:1011E000B0EBC70072EB57720CFB08F734BFA2EBF1
:1011F000C702B2EBC70261EB5771039F4FEA8161EF
:1012000041EA921104EBCC044FEAD1374FEA8262F3
:1012100006FB07FC42EA90124FEA80604FEA1C4C42
:101220000CFB0BF7D21B03FB0CF761EB07010CFB6C
:101230000EF7B0EB074072EB17420CFB08F734BF18
:10124000A2EB0742B2EB074261EB17414FEA8C5524
:101250004FEA910704EB9C2406FB07FC4FEA1C4C69
:101260000CFB0BF7B0EBC74072EB573203FB0CF7EC
:1012700034BFA2EBC742B2EBC74261EB57310CFB64
:101280000EF7B0EBC70072EB57720CFB08F734BFD8
:10129000A2EBC702B2EBC70261EB577115EB4C250D
:1012A0004FEA816141EA92114FEA82624FEAD137F7
:1012B00042EA901206FB07FC44F100044FEA80600A
:1012C0004FEA1C4C0CFB0BF7D21B03FB0CF761EB3A
:1012D00007010CFB0EF7B0EB074072EB17420CFB5B
:1012E00008F734BFA2EB0742B2EB074261EB1741AC
:1012F00015EB1C154FEA813141EA92414FEA8232E7
:1013000042EA90424FEA80304FEA0C7644F1000402
:1013100048EA03434EEA0B484FF0000EB2EB080CCC
:1013200071EB030724BF624639464EEB0E0E4FF0B9
:10133000000B0018524149414BEB0B0BB2EB080C70
:1013400071EB03077BF1000B24BF624639464EEB7D
:101350000E0E4FF0000B0018524149414BEB0B0BA6
:10136000B2EB080C71EB03077BF1000B24BF624664
:1013700039464EEB0E0E51EA020718BF46F0010641
:1013800016EB0E7655F1000254F1000103D5BDE8CD
:101390008901BDE80088BDE88901BDE80048B619AB
:1013A000524141EB0101A3F10103704780807F7E30
:1013B0007D7C7B7A797877767675747372717170CB
:1013C0006F6E6E6D6C6C6B6A6A696868676666657D
:1013D0006464636362616160605F5F5E5E5D5D5C0B
:1013E0005C5B5B5A5A59595858575756565555557C
:1013F0005454535352525251515050504F4F4F4EDC
:101400004E4D4D4D4C4C4C4B4B4B4A4A4A49494929
:10141000484848474747474646464545454444446B
:1014200044434343434242424241414146EA064625
:10143000A3F570534FEA164646EA42564FEAD222C7
:1014400042EA415210B54FEAD121A3F1010300F065
:101450002FF820F0004000F1020C00F0004701EBF3
:1014600000501146BCF5006F40EA070000D210BDE5
:10147000BAF1000F0AD01CB503B44FF004004FF0CE
:1014800004014FF000000FBCBDE810404FF0000118
:10149000BBF1010FB9BF04484FF0FF3103480021F1
:1014A00040EA070010BD00BFFFFFEF7F0000F07FA4
:1014B000002B9C4630D477002BD01CB54FEA370761
:1014C00003B44FF010004FF01001BAF1000F06D036
:1014D000BCF1000FDCBF40F0080040F008014FF005
:1014E00000000FBCBDE810400BF1010BBBF1010F78
:1014F00008BF5FEA170722BF12F1010211F10101D3
:101500004FF0004143F1000300F0004043EA0000C7
:101510007047F9D35708D0E746EA064613F1400F63
:101520004FEA16461FDD13F1200FDFBF16430A46B0
:10153000002120335B42BED0C3F1200746EA0646B5
:1015400002FA07F74FEA164646EA0706C3F12007F4
:1015500022FA03F201FA07F721FA03F14FF0000330
:1015600042EA0702A7E746EA020646EA06464FEACB
:10157000164646EA0106BCBF46EA0646360C4FF060
:1015800000034FF000024FF0000194E72DE9804C7A
:101590009A46934670B491E8380007C831EA400C87
:1015A00048BF34EA430C03D5FFF7A4FDFFF780FFE3
:1015B000F0BCBDE8008C2DE9804C9A46934670B48F
:1015C00091E8380007C831EA400C48BF34EA430CC0
:1015D00003D5FFF78FFDFFF729FFF0BCBDE8008CB6
:1015E0002DE9804C9A46934670B491E8380007C8BC
:1015F00010F0804F08BF13F0804F03D100F01AF8AD
:10160000FFF756FFF0BCBDE8008C2DE9804C9A46F0
:10161000934670B491E8380007C810F0804F08BFB7
:1016200013F0804F03D100F005F8FFF7FFFEF0BC88
:10163000BDE8008C20F07F4780EA030023F07F4C58
:1016400007EB0C03A3F57C5300F00040A3F1FE036D
:1016500092F0000F00F0B38095F0000F00F077805B
:101660002DE901494FEA11404FEA144621EA0048AA
:1016700000FB06FC24EA064708FB06F607FB08F811
:1016800000FB07F718EB06484CEB164C4FEA124BE1
:1016900018EB07484FEA15464CEB174022EA0B4E71
:1016A0000BFB06FC25EA06470EFB06F607FB0EFEC3
:1016B0000BFB07F71EEB064E4CEB164C4FF00006EB
:1016C0001EEB074E4CEB174B18EB0B0840F10000DC
:1016D00018EB0E0B58EB000840F100008F1A4FF08A
:1016E00000013CBFC943661B14BFB5EB040C0021CD
:1016F0003CBFC943F61B4FEA17444EEA8E0E27EA59
:1017000004454FEA1C4704FB07622CEA074C05FB23
:1017100007F70CFB05F604FB0CFC16EB074642EB47
:10172000174216EB0C4642EB1C421BEB060658EB2D
:101730000202414146EA9E0601D5BDE80189B6197B
:10174000524141EB0101A3F10103BDE801894FEAD8
:1017500014454FEA114724EA054621EA074C05FBE8
:1017600007F406FB07F70CFB06F105FB0CFC11EB7D
:10177000074144EB17444FEA124711EB0C4144EB8D
:101780001C4422EA074C05FB07F206FB07F70CFB9B
:1017900006F605FB0CFC16EB074642EB174216EB70
:1017A0000C4642EB1C456A1854F1000148BF7047D3
:1017B000B619524141EB0101A3F10103704795F0C5
:1017C000000F37D04FEA11424FEA144721EA024690
:1017D00024EA074C02FB07F106FB07F70CFB06F4B3
:1017E00002FB0CFC14EB074441EB17414FEA154791
:1017F00014EB0C4441EB1C4125EA074C02FB07F5B6
:1018000006FB07F70CFB06F602FB0CFC16EB074683
:1018100045EB174516EB0C4645EB1C42121951F1EE
:10182000000148BF7047B619524141EB0101A3F1D5
:10183000010370474FEA14454FEA114724EA054671
:1018400021EA074C05FB07F106FB07F70CFB06F244
:101850004FF0000605FB0CFC12EB074241EB174171
:1018600012EB0C4251EB1C4148BF7047921841EB00
:101870000101A3F10103704710B50146806B026CB2
:1018800012F0500F05D0026CD20626D500F0FDF9FB
:1018900010BD016C41F40071016401688A6812F0A6
:1018A000405F17D1027EAAB9CA6A12F4700F02D043
:1018B0008A6852050ED44A6822F020024A60016C00
:1018C00021F480710164016CC90403D4016C41F0FE
:1018D0000101016400F0C8F910BD806BC26CBDE865
:1018E00010400846104710B5806B40210164416CE0
:1018F00041F00401416400F0C8F910BD10B5806BDF
:1019000000F0C2F910BD0000464910B54A6822F443
:1019100040324A604A6843681A434A6001684A682C
:1019200022F480724A6001684A68036942EA03222D
:101930004A6001684A6822F040724A6001684A6859
:1019400083681A434A6001688A6822F400628A60E8
:1019500001688A68C3681A438A60816A6FF070629E
:10196000D14201688A6822F070628A6001688A68E0
:101970000CD0836A1A438A6001688A6822F0405258
:101980008A6001688A68C36A1A4301E022F0405203
:101990008A6001688A6822F002028A6001688A68A7
:1019A000037E42EA43028A6090F820100029016811
:1019B0004A680FD042F400624A6001684A6822F423
:1019C00060424A6001684A68174C436A04EB43333B
:1019D0001A4301E022F400624A600168CA6A22F4F4
:1019E0007002CA620168CA6A838B104C04EB03530D
:1019F0001A43CA6201688A6822F400728A60016828
:101A00008A6890F8303042EA43228A6001688A6826
:101A100022F480628A6001688A68406942EA802014
:101A2000886010BD0023014000E0FFFF0000F0FFD0
:101A3000FEE70000014800F0A5BA00009801002070
:101A4000014800F09FBA000048030020014800F060
:101A500099BA0000E8020020014800F093BA0000A3
:101A600028020020014800F08DBA00008802002002
:101A700001681823CAB2103AB2FBF3F2054B6FF3B8
:101A80000901032A9B5CC36500D9091D81650846CD
:101A900070470000EA49000810B5014600208B6934
:101AA0008A6A4FF0C07453B1B3F5005F15D072B1BC
:101AB000012A0CD0022A0AD0032A09D104E01AB163
:101AC000012A06D0022A03D1C96AC90100D5012022
:101AD00010BDC96AA142FAD010BD002AF7D0012A70
:101AE000F2D0022AF3D0032AF3D010BD30B5046837
:101AF000256825F480252560046863608368402B91
:101B0000036803D099600068C26030BD9A600068C5
:101B1000C16030BD704772B6FEE7000078B50024A2
:101B2000009490F83C20012A19D0012280F83C2032
:101B30000A6807230568092A13D9EE680A3A02EBF6
:101B4000420293409E43EE600B788A680A3B03EBA7
:101B500043039A400368DD682A43DA6010E00220FC
:101B600078BD2E6902EB420293409E432E610B78B2
:101B70008A6803EB43039A4003681D692A431A618C
:101B80004A681F23072A13D205686E6B521E02EBA8
:101B9000820293409E436E630B790A885B1E92B269
:101BA00003EB83039A4003685D6B2A435A6327E083
:101BB00005680D2A12D22E6BD21F02EB82029340CF
:101BC0009E432E630B790A88DB1F92B203EB8303DB
:101BD0009A4003681D6B2A431A6311E0EE6A0D3ABE
:101BE00002EB820293409E43EE620B790A880D3B22
:101BF00092B203EB83039A400368DD6A2A43DA62F8
:101C0000164B0568144A9D4206D10D68122D03D16A
:101C1000556845F48005556005689D4218D10B68EC
:101C2000102B01D0112B13D1536843F400035360E0
:101C3000096810290CD10A490A4A0968B1FBF2F176
:101C400001EB8101490000E0491E00910029FBD110
:101C500080F83C40002078BD002301400020014076
:101C60002C00002040420F000549884207D105485A
:101C70000169B1F5006F02D9C168491CC1607047A4
:101C800030000020000000207047704770B504004D
:101C90004FF0000503D0206C002610B107E00120B2
:101CA00070BD204600F01CF8666484F83C60206C2F
:101CB000C00610D4206C20F4885040F0020020644C
:101CC0002046FFF721FE6664206C20F0020040F001
:101CD0000100206400E0012584F83C60284670BDC6
:101CE00070B586B0064614216846FEF78DFB1C4988
:101CF0003068884232D11B480025016841F4807168
:101D00000160006800F4807005901648143801687E
:101D100041F0040101600068694600F0040005908C
:101D2000022000900320CDE901050F4800F0AEFA33
:101D30000F4C0E48C4E90005A5608014E560C4E9B5
:101D400004508000C4E9060525622046656200F063
:101D5000E9F908B1FFF7DFFEB463A66306B070BD12
:101D600000200140443802400008024070640240F4
:101D700028020020F8B50E4600210446009190F894
:101D80003C0013460A46012807D0012084F83C0095
:101D900020688568ED0702D011E00220F8BD856853
:101DA00045F0010585604048404D0068B0FBF5F006
:101DB00000EB400000E0401E00900028FBD12068AE
:101DC0008568ED0503D5856825F4807585602068F4
:101DD0008568ED075DD0226C40F20165AA4342F4AC
:101DE000807222644068400505D5206C20F40050C4
:101DF00040F480502064206CC00404D5606C20F056
:101E00000600606400E0616484F83C10A16B29481E
:101E1000274DC863A16B28480864A16B2748C86494
:101E200021686FF0220008602068416841F08061FD
:101E300041602068816841F4807181602168324688
:101E40004C31A06B00F0D8F9024668681C49C00606
:101E5000206806D0884224D1816811F0405F13D0F9
:101E60001FE08842F8D0174B984203D1D1F80433D1
:101E7000DB06F1D0144B984213D1D1F8041301F0D2
:101E80001F011029E8D30CE0816841F08041816096
:101E900007E0206C40F010002064606C40F001000E
:101EA00060641046F8BD00002C00002040420F0086
:101EB0000023014079180008FD180008E718000801
:101EC0000020014000210140002201402DE9F041A5
:101ED0000446876D00F0D8FA064694F835000025D0
:101EE000022806D08020606584F834500120BDE8C7
:101EF000F0812068016821F01601016020684169C5
:101F000021F080014161206C08B9A06C20B12068EB
:101F1000016821F0080101602068016821F00101D9
:101F200001600CE000F0B0FA801B052807D92020E2
:101F30006065032084F8350084F83450D7E72068C2
:101F40000068C007EED194F85C103F208840B8606C
:101F5000012084F8350084F834500020C7E790F859
:101F60003510022903D080214165012070470521E9
:101F700080F835100068016821F00101016000203F
:101F8000704700002DE9F84304464FF00009CDF8F2
:101F9000009063484FF41651A56D0068B0FBF1F74F
:101FA0002E6894F85C10082000FA01F131420FD03D
:101FB00021680A6852070BD50A6822F004020A60F9
:101FC00094F85C108840A860606D40F00100606586
:101FD00094F85C104FF0010808FA01F0304208D084
:101FE00021684969090604D5A860606D40F00200C7
:101FF000606594F85C1004208840304208D0216865
:102000000968890704D5A860606D40F00400606528
:1020100094F85C1010208840304218D0216809687C
:10202000090714D5A86020680168490304D5006831
:10203000000308D5A16C07E00168C90503D4016855
:1020400021F008010160216C09B12046884794F80D
:102050005C1020208840304231D021680968C906D0
:102060002DD5A86094F8350005282068016806D0B1
:10207000490347D5006800031DD4616C1CE021F0C2
:10208000160101602068416921F080014161206CE6
:1020900008B9A06C20B12068016821F00801016036
:1020A00094F85C103F208840A86084F8358084F85C
:1020B0003490216D1FE0E16B09B120468847606DC7
:1020C00000282BD0606DC00714D0052084F835009F
:1020D0002068016821F0010101600098401C009017
:1020E000B84203D820680068C007F6D184F835806C
:1020F00084F83490E16C002910D001B02046BDE88E
:10210000F04308470168C905D5D4016821F01001E2
:10211000016084F8358084F83490CCE7BDE8F8831A
:102120002C0000202DE9F041044600F0ADF90646F0
:102130005CB1022084F83500002584F83450206812
:10214000016821F0010101600DE00120BDE8F0818E
:1021500000F09AF9801B052805D92020606503202E
:1021600084F83500F2E720680068C007F0D12268E3
:10217000116820480140D4E901031843D4E903362B
:102180003343184363691843A3691843E369184349
:10219000236A18430843616A042903D1D4E90B1365
:1021A00019430843106020684069666A20F00701FF
:1021B00030460E43012704280CD1A06A0643E06A8A
:1021C00040B12046FFF768FC20B14020606584F8EC
:1021D0003570BAE7206846612046FFF749FC94F85D
:1021E0005C203F2191408160656584F83570002056
:1021F000ACE700003F8010F02DE9F0410446866D09
:1022000090F83400002501280DD0012084F8340016
:1022100094F835700020012F07D084F8340002258F
:102220002846BDE8F0810220FBE7022784F83570DC
:1022300060652046FFF75AFC94F85C103F20884008
:10224000B0602068016841F016010160206C20B187
:102250002068016841F0080101602068016841F0D0
:1022600001010160DCE7000070B5044600F00CF9E4
:102270000546601C02D004480078044400F004F9CC
:10228000401BA042FAD370BD200000202DE9F84F7A
:10229000DFF8BCA10022012503264FF00F090AF147
:1022A000040BAAF1040E00BF0B6805FA02F42340E8
:1022B000A34270D10F7907F00307012F01D0022F3D
:1022C00016D187684FEA420806FA08FC27EA0C078D
:1022D000D1F80CC00CFA08FC4CEA070CC0F808C096
:1022E0004768A7430C79C4F3001494403C4344600E
:1022F0000C79E443A4070AD0C4684FEA420C06FAFA
:102300000CF7BC438F6807FA0CF72743C7600C79BA
:1023100004F00304022C12D1D40800EB840CDCF886
:1023200020405707FF0E09FA07F824EA0804D1F8FD
:10233000108008FA07F848EA0408CCF820800468FE
:102340004FEA420C06FA0CF7BC430F7907F003077B
:1023500007FA0CF7274307604C6814F4403F70D02D
:102360003C4C276847F480472760246822F0030725
:1023700004F480440094384C07EB040CDCF8084863
:1023800097074FEA177809FA08F7BC43334FB8426A
:1023900002D1002724E054E0314FB84201D1012797
:1023A0001EE0304FB84201D1022719E02E4FB8424B
:1023B00001D1032714E02D4FB84201D104270FE0CB
:1023C0002B4FB84201D105270AE02A4FB84201D16C
:1023D000062705E0284FB84201D1072700E008276B
:1023E00007FA08F72743CCF80878DAF80040574690
:1023F000D1F804C09C435FEACC2C00D51C433C6060
:10240000DBF800405F46D1F804C09C435FEA8C2CA7
:1024100000D51C433C60DEF800407746D1F804C08C
:102420009C435FEA8C3C00D51C433C60084F083F4E
:102430003C68D1F804C09C435FEACC3C00D51C4307
:102440003C60521C102AFFF42FAFBDE8F88F00004B
:10245000083C014044380240003001400000024086
:102460000004024000080240000C0240001002403C
:102470000014024000180240001C02400AB18161B1
:1024800070470904FBE700000148806870470000BE
:102490002000002002488168027811448160704762
:1024A000200000200B4810B5016841F40071016064
:1024B000016841F480610160016841F4807101604C
:1024C000032000F06FF80F2000F006F800F024F869
:1024D000002010BD003C024070B50D4D04464FF485
:1024E0007A712878B1FBF0F00A490968B1FBF0F085
:1024F00000F00CFB48B9102C07D200222146501ED8
:1025000000F030F800206C6070BD012070BD00004C
:10251000200000202C0000200A4808B5016841F482
:1025200080410160006800F4804000900548001F71
:10253000016841F080510160006800F08050009017
:1025400008BD000044380240002809DB00F01F02EB
:10255000012191404009800000F1E020C0F8001105
:1025600070470000F0B40E4B1B680C46C3F3022307
:10257000C3F10705042D00D90425191D072901D22F
:10258000002300E0DB1E012606FA05F1491E21406A
:1025900099409E40761E16403143F0BC01F0B5BC18
:1025A0000CED00E0064900F0070208684FF6FF0353
:1025B000184040EA0220034A1043086070470000B8
:1025C0000CED00E00000FA052DE9F0470E4605008D
:1025D00065D0DFF81481D8F80000F7B200F00700EA
:1025E000B04207D288F80070D8F8000000F0070069
:1025F000B04254D128683D4C810712D5400703D51D
:10260000206840F4E05020602878000703D5206857
:1026100040F4604020602068A96820F0F000084382
:1026200020602878C0072DD0304968680839012813
:1026300012D0022813D0032811D009688907002975
:102640002DDA216821F0030101432160FFF71CFF0F
:10265000814641F2883A0EE009688903EFE709688C
:102660008901ECE7FFF710FFA0EB0901514502D902
:102670000320BDE8F0872068696800F00C00B0EB2B
:10268000810FEFD1D8F80010404601F00701B142A8
:1026900007D90770006800F00700B04201D00120A0
:1026A000E7E72878400705D52068E96820F4E0507E
:1026B000084320602878000706D52068296920F49F
:1026C000604040EAC100206000F038F82168084A04
:1026D000C1F30311515CC840064908600648006810
:1026E000FFF7FAFE0020C4E7003C02400838024031
:1026F000F24900082C00002024000020044805496D
:1027000000680968044AC1F38221515CC8407047DF
:102710002C00002008380240024A000804480549FD
:1027200000680968044AC1F34231515CC8407047EF
:102730002C00002008380240024A0008154810B555
:10274000006810F00C02144813D01449042A0FD06A
:10275000082A0ED10F4C241F2268236802F03F0282
:102760005B0207D52068C0F38810A0FB010106E0DA
:10277000084610BD2168C1F38811A1FB00010023A8
:10278000FDF780FD2168C1F30141491C4900B0FB00
:10279000F1F010BD083802400024F40040787D01BB
:1027A0002DE9F84F04006ED02078DFF84C93C00775
:1027B000A9F104054AD009F104000168C1F38101BF
:1027C000012908D00068C0F3810002280AD1D9F895
:1027D0000000400206D52868800337D560680028CD
:1027E000E1D033E06068B0F5803F10D0B0F5A02FA5
:1027F000286810D020F480302860286820F48020D9
:1028000028606068A8B1FFF73FFE06460DE0286823
:1028100040F48030F4E740F480202860F7E700BF00
:10282000FFF732FE801B642873D828688003F7D531
:102830000CE0FFF729FE064605E000BFFFF724FE87
:10284000801B6428F0D828688003F7D42078DFF84C
:10285000AC8280074FF0000A3ED5A748001D0168F2
:1028600011F00C0F08D00068C0F3810002280BD1D2
:10287000D9F80000400207D42868800716D5E06820
:10288000012800D112E033E1E068B8B10120C8F8B6
:102890000000FFF7F9FD064605E000BFFFF7F4FD75
:1028A000801B0228C0D828688007F7D528682169CE
:1028B00020F0F80040EAC10028600DE0C8F800A050
:1028C000FFF7E2FD064604E0FFF7DEFD801B02286D
:1028D0001FD828688007F7D42078000722D5864FB4
:1028E00087486169703771B101210160FFF7CCFD44
:1028F000064604E0FFF7C8FD801B022809D83868A7
:102900008007F7D50EE0C0F800A0FFF7BDFD064632
:1029100005E082E0FFF7B8FD801B02287DD838680B
:102920008007F7D42078400768D5DFF8CCB10027BE
:102930000BF13C0BDBF80000C0000BD4DBF80010FF
:1029400041F08051CBF80010DBF80000012700F0C7
:10295000805000906B4E3068C00510D4306840F451
:1029600080703060FFF790FD009005E0FFF78CFD70
:102970000099401A022850D83068C005F6D55E4E3E
:10298000A0686C3601280FD00528306810D020F0E0
:1029900001003060306820F004003060A068B8B1F9
:1029A000FFF772FD00900FE0306840F00100F4E79F
:1029B00040F004003060F7E7FFF766FD0099411A28
:1029C00041F28830814266D830688007F4D50EE045
:1029D000FFF75AFD009007E0FFF756FD0099411AF6
:1029E00041F28830814256D830688007F4D42FB144
:1029F000DBF8001021F08051CBF80010A069C8B3BB
:102A00003D49091D0968C1F3810102294AD0022804
:102A1000504607D0C8F8600000E03CE0FFF734FD06
:102A200004463BE04746C8F86000FFF72DFD064628
:102A300005E000BFFFF728FD801B02282BD828687F
:102A40008001F7D4D4E907010843A16A2E4A490856
:102A500002EB0141626A41EA8211084394F82C10AA
:102A600040EA0161C9F8001001203866FFF70CFD4B
:102A7000044606E03EE000BFFFF706FD001B02280B
:102A800009D828688001F7D534E000BFFFF7FCFCC7
:102A9000001B022802D90320BDE8F88F28688001B6
:102AA000F4D427E00128F7D0D9F80000E26900F457
:102AB000800191421CD1226A00F03F01914217D15E
:102AC00047F6C071626A0140B1EB821F10D1A26A61
:102AD0004FF0FF3300F4403103EB5202B1EB024FF1
:102AE00006D194F82C1000F07060B0EB016F01D0AB
:102AF0000120D1E70020CFE7043802400000474220
:102B0000800E4742007000400000FFFF10B5401EDD
:102B1000B0F1807F01D3012010BD4FF0E02460614F
:102B20000F21601701F0F1F90020A061072020615A
:102B3000002010BD70B590F83C20012A32D001244D
:102B400080F83C40022280F83D2003685A689D6866
:102B500022F070060A6832435A60134B02689A42A8
:102B600014D0B2F1804F11D0104B9A420ED0104BBE
:102B70009A420BD00F4B9A4208D00F4B9A4205D085
:102B80000E4B9A4202D00E4B9A4204D1496825F06E
:102B900080031943916080F83D40002180F83C108B
:102BA000084670BD022070BD0000014000040040D6
:102BB00000080040000C00400004014000400140BB
:102BC0000018004010B5040003D094F83D0010B187
:102BD00007E0012010BD002084F83C00204600F0F2
:102BE0001FF8022084F83D00211D206800F0E2FE5D
:102BF000012084F8460084F83E0084F83F0084F801
:102C0000400084F8410084F8420084F8430084F8CE
:102C1000440084F8450084F83D00002010BD000009
:102C200008B50C4A01680C48914207D1016841F08F
:102C300002010160006800F0020009E0074A9142C9
:102C400007D1016841F004010160006800F0040050
:102C5000009008BD000400404038024000080040D9
:102C600090F83D10012901D001207047022180F821
:102C70003D100168CA6842F00102CA60006811494B
:102C8000884214D0B0F1804F11D00F4988420ED045
:102C90000E4988420BD00E49884208D00D4988421F
:102CA00005D00D49884202D00C49884204D1816880
:102CB00001F00701062903D0016841F0010101601C
:102CC0000020704700000140000400400008004060
:102CD000000C00400004014000400140001800408A
:102CE00070B5044690F83C000025012817D0012655
:102CF00084F83C60022084F83D002068826822F05D
:102D0000770222F47F4282600868502838D00DDCB8
:102D100020284FD005DC90B3102811D14AE00220C2
:102D200070BD302846D040280AD13BE060282FD023
:102D300070280DD0B0F5805F03D0B0F5005F12D0E1
:102D4000012584F83D60002084F83C00284670BDD1
:102D5000CB68D1E90121206800F0A1FE20688168DC
:102D600041F0770109E0CB68D1E90121206800F04A
:102D700096FE2068816841F480418160E1E719E0B6
:102D8000CA684968206800F05FFF5021206806E0AB
:102D9000CA684968206800F068FF6021206800F078
:102DA00088FECEE7CA684968206800F04DFF4021E0
:102DB0002068F4E7226801461046F0E710B586B0B7
:102DC000044614216846FDF71FFB0D492068884220
:102DD00014D10C480021026842F00402026000682D
:102DE00000F004000590402000900220CDE9010190
:102DF000CDE9031069460448FFF748FA06B010BD54
:102E000000040040303802400008024070B504461B
:102E100090F83C0000260D4601280FD0012084F8D0
:102E20003C006AB1042A1DD0082A2FD00C2A3FD0BA
:102E30000126002084F83C00304670BD022070BDA1
:102E4000206800F03FFE2068816941F0080181613F
:102E50002068816921F004018161206881692A6903
:102E6000114311E0206800F05DFE2068816941F4A3
:102E7000006181612068816921F48061816120683D
:102E800081692A6941EA02218161D2E7206800F064
:102E90007FFE2068C16941F00801C1612068C169F5
:102EA00021F00401C1612068C1692A69114311E060
:102EB000206800F0A1FE2068C16941F40061C16191
:102EC0002068C16921F48061C1612068C1692A69F3
:102ED00041EA0221C161ACE710B5040003D094F8C7
:102EE0003D0010B107E0012010BD002084F83C0037
:102EF000204600F01EF8022084F83D00211D2068C5
:102F000000F058FD012084F8460084F83E0084F863
:102F10003F0084F8400084F8410084F8420084F8BF
:102F2000430084F8440084F8450084F83D00002004
:102F300010BD704710B50446022249B104290ED0D5
:102F4000082913D094F84100012816D0012010BDA3
:102F500094F83E000128F9D184F83E200FE094F85F
:102F60003F000128F2D184F83F2008E094F84000A7
:102F70000128EBD184F8402001E084F841200122AF
:102F8000206800F07FFD16492068164A884201D06B
:102F9000904203D1436C43F4004343642068884269
:102FA00013D0B0F1804F10D00F4988420DD00F4997
:102FB00088420AD00E49884207D0904205D00D4978
:102FC000884202D00C49884204D1816801F007018F
:102FD000062903D0016841F001010160002010BD05
:102FE00000000140000401400004004000080040CF
:102FF000000C0040004001400018004018B5034696
:1030000090F84200202801D0022018BD61B15AB1C9
:103010000120186300205863184600F04DFF002877
:10302000F3D1196B012901D0012018BD19680A6874
:103030004968009119680C3151E8002F42F01002E4
:1030400041E80024002CF5D118BD00002DE9FC4119
:103050004B4A90426FD10A4649494948A83100F08D
:103060000CFB4748082247A1A830FDF782F9444DE0
:10307000474CA835612638B10E2246A12846FDF7F7
:1030800078F9002858D06FE03D480B2245A1A830C0
:10309000FDF76FF900284CD039480C2244A1A83024
:1030A000FDF767F970B136480E2245A1A830FDF74B
:1030B00060F948B13248102245A1A830FDF759F90E
:1030C000E8B151E0012034E046A06F46006800906E
:1030D000002001E03954401C2918C97B0029F9D18E
:1030E000384600F0A1FF51EC100B01F0D1F96060FF
:1030F00000203E54401C0428FBDB022019E039A0CC
:103100006F4600680090002001E03954401C2918E7
:10311000497C0029F9D1384600F086FF51EC100BAC
:1031200001F0B6F9A06000203E54401C0428FBDBEF
:103130000320207018E020E02BA16F46D1E90001A8
:10314000CDE90001002001E03954401C2918C97B59
:103150000029F9D1384600F067FF84ED060B002006
:103160003E54401C0528FBDB02B00549BDE8F04198
:103170001922A8310248FFF741BFBDE8FC810000D9
:10318000500100207365745F6D6F6465000000007E
:10319000000000207365745F6272696768746E6511
:1031A000737300007365745F6D6F6465206F6E00EC
:1031B0007365745F6D6F6465206F66660000000064
:1031C0007365745F6D6F646520626C696E6B00007F
:1031D0007365745F6D6F64652062726561746865A4
:1031E0000000000061616161616161616100000076
:1031F00070470000F8B5016804460868CA684B6962
:1032000010F00F0F4FF0000559D003F0010602F443
:103210009077374365D0C10705D0D10503D5616CE0
:1032200041F001016164410705D5D90703D0616C04
:1032300041F002016164810705D5D90703D0616CB3
:1032400041F004016164010707D502F02001314318
:1032500003D0616C41F008016164616C00293AD0CF
:10326000800604D5900602D5204600F03EFD206879
:103270004069616CC0F38010090700D460B3204638
:1032800000F00CFD20684069400621D5206814300C
:1032900050E8001F21F0400140E80012002AF5D15B
:1032A000E06BA8B172490165E06BFEF758FE00289B
:1032B00011D0E06B016D01B0BDE8F0400847830616
:1032C0000FD593060DD52046BDE8F84000F00DBDA2
:1032D0002046FFF78DFFF8BD2046FFF789FF6564A4
:1032E000F8BD266B2023012E7ED1C6067CD5D606DE
:1032F0007AD508684868009048694FF00206400691
:103300004DD5E26B106840684FF480770004000CE4
:103310003AD0A18D814237D9E085D069B8422DD00D
:1033200020680C3050E8001F21F4807140E8001242
:10333000002AF5D12068143050E8001F21F0010167
:1033400040E80012002AF5D12068143050E8001F30
:1033500021F0400140E80012002AF5D184F8423003
:10336000256320680C3050E8001F21F0100140E870
:103370000012002AF5D1E06BFEF7A8FD6663A08D70
:10338000E18D401A81B206E0A18D8142A8D1D069B9
:10339000B842A5D166632046FFF758FEF8BDA08D60
:1033A000E18D401A81B2E08D0028F7D00029F5D0D8
:1033B00020680C3050E8002F22F4907240E800277B
:1033C000002FF5D12068143050E8002F22F00102C0
:1033D00040E80027002FF5D184F8423025632068AB
:1033E0000C3050E8002F00E006E022F0100240E828
:1033F0000023002BF3D1CDE705062BD5150629D5E3
:1034000094F841002128C9D1A068B0F5805F01D1AE
:103410002069B0B1206A411C2162216800784860AF
:10342000E08C401E0004000CE084B7D12068C16825
:1034300021F08001C1602068C16841F04001C16095
:10344000F8BD206A0088C0F308004860206A801C2C
:103450002062E5E74006F3D55006F1D5CA6820465C
:1034600022F04002CA6084F8413000F01FF9F8BD34
:103470008F3C000870B5040004D094F8410000258A
:1034800010B106E0012070BD84F84050204600F0E5
:1034900023F8242084F841002068C16821F40051F9
:1034A000C160204600F082FC2068016921F490414F
:1034B00001612068416921F02A0141612068C168E9
:1034C00041F40051C1606564202084F8410084F813
:1034D00042006563002070BD2DE9F04786B00446C8
:1034E00014216846FCF790FFDFF864C102212668CA
:1034F000584803220723DFF8608100258F064FF02C
:10350000400A4FF4806966454CD1524E1436D6F8C5
:1035100000C04CF0100CC6F800C0366806F010066B
:103520000596066846F001060660006800F0010096
:10353000059050028DE8230069464046CDE90323FB
:10354000FEF7A4FE464E4548C846C6E903597561D4
:10355000B561F5613562756286E881043046FEF733
:10356000E1FD08B1FEF7D7FAA663B4633B483D4ED0
:1035700078383060C6E90175C6E903587561B561F0
:10358000F561356230467562FEF7CCFD08B1FEF795
:10359000C2FAE663002211462520B463FEF7E2FF7B
:1035A000252050E0DFF8C0C066454ED1294E1036C8
:1035B000D6F800C04CF4003CC6F800C0366806F4EB
:1035C00000360596066846F001060660006800F0C1
:1035D000010005900C208DE8230069464046CDE9A6
:1035E0000323FEF753FE224E2048B8463060C6E95A
:1035F0000175C6E903597561B561F56135624F46DC
:1036000030467562FEF78EFD08B1FEF784FAE66378
:10361000B463184E1548C6E903577561B561F56185
:1036200035621830756286E801053046FEF77AFD8E
:1036300008B1FEF770FAA663002211462620B46393
:10364000FEF790FF2620FEF77FFF06B0BDE8F0876B
:10365000001001403038024000000240B8640240CF
:1036600088020020E80200200044004088600240F8
:103670009801002048030020704790F84130202B2B
:1036800001D00220704779B172B101628284C28494
:1036900000214164212180F841100068C16841F097
:1036A0008001C16000207047012070477047FEE72D
:1036B0007FB50024154800940194029412490394A4
:1036C00001604FF48031C0E901140461047680F890
:1036D00020400F49C0E90A140125C561C46080F883
:1036E00030404561FEF7D2FA08B172B6FEE70B2012
:1036F000CDE90005694602940448FEF70FFA002858
:1037000001D072B6FEE77FBD0020014030000020EE
:103710000100000F1D4808B5016841F480010160F7
:10372000016801F480010091016841F40011016019
:103730000068002200F40010009011461020FEF7EF
:1037400011FF1020FEF700FF002211461120FEF7A6
:1037500009FF1120FEF7F8FE002211463A20FEF77D
:1037600001FF3A20FEF7F0FE002211463C20FEF752
:10377000F9FE3C20FEF7E8FE002211464620FEF747
:10378000F1FEBDE808404620FEF7DEBE30380240BC
:1037900030B587B014216846FCF736FE1548002482
:1037A000016841F080010160016801F0800105912C
:1037B000016841F004010160016801F00401059114
:1037C000016841F00101016000680B4D00F001004B
:1037D0000590002230212846FEF750FE3020009050
:1037E0000120CDE90104694628460394FEF74EFD09
:1037F00007B030BD303802400008024010B58EB02E
:1038000000240794089409940A940B941C21684698
:103810000C94FCF7F9FD1F481D4901605321C0E9D4
:1038200001146321C0E9031480218161FFF7CAF903
:1038300008B172B6FEE74FF48050079007A915480B
:10384000FFF74EFA08B172B6FEE71248FFF744FBE5
:1038500008B172B6FEE70B940BA90E480C94FFF763
:1038600069F908B172B6FEE7602000903220CDE918
:1038700001040022694607480494FFF7C7FA08B11B
:1038800072B6FEE70348FFF799FA0EB010BD0000CC
:10389000000400407800002010B586B000241848CD
:1038A00000940194029403940494144905940160D3
:1038B00042F2CF01C0E9011442F20F71C0E90314D2
:1038C00080218161FFF77EF908B172B6FEE74FF4FF
:1038D0008050009069460A48FFF702FA08B172B6B4
:1038E000FEE7049404A906480594FFF723F900288D
:1038F00001D072B6FEE706B010BD0000000800401F
:10390000C0000020FEE7FEE770477047FEF7C2BD2B
:1039100030B593B030216846FCF776FD14210CA831
:10392000FCF772FD1D480025016841F080510160DF
:10393000006800F0805011901948016841F48041FE
:1039400001600068022400F480401190012003907F
:1039500010200490009406940820CDE90750A82078
:10396000CDE9090404200B906846FEF719FF08B161
:1039700072B6FEE70CA90F2081E831004FF4A05089
:103980000F904FF48050109005210CA8FEF71CFEFC
:10399000002801D072B6FEE713B030BD40380240B7
:1039A000007000400248016841F4700101607047F6
:1039B00088ED00E0F0B50268274B284D284E294FCE
:1039C000294C4FF0804C984209D0604507D0A8425E
:1039D00005D0B04203D0B84201D0A04204D122F0B9
:1039E000700E4A6842EA0E0298421BD0604519D018
:1039F000A84217D0B04215D0B84213D0A04211D07F
:103A00001A4DA8420ED01A4DA8420BD0194DA8420B
:103A100008D0194DA84205D0184DA84202D0184D23
:103A2000A84203D122F44075CA682A434D6922F0A6
:103A300080022A438D68C5620D688562984201D074
:103A4000A04201D109690163016841F004010160EC
:103A5000012141610260F0BD00000140000400400E
:103A600000080040000C00400004014000400140FC
:103A7000004401400048014000180040001C004084
:103A80000020004010B501F01F030121046A994095
:103A90008C430462016A9A401143016210BD10B563
:103AA000846842EA032224F47F440A43224382606A
:103AB00010BD826822F070020A4342F00701816063
:103AC00070470000F0B5036A026A22F00102026248
:103AD00042688469124E24F073050C682C4323F06D
:103AE00002058B682B430D4DA84201D0B04205D191
:103AF00023F00807CB683B4323F00403A84201D01E
:103B0000B04205D14D6922F4407215438A692A43B7
:103B100042608461496841630362F0BD0000014076
:103B200000040140F0B5026A036A23F01003036247
:103B3000436884690D6824F4E64444EA05248D68EA
:103B400022F0200242EA05120F4D104EA84201D089
:103B5000B04206D1CF6822F0800242EA071222F07A
:103B60004002A84201D0B04207D14D6923F440631E
:103B700043EA85038D6943EA8503436084614968AC
:103B800081630262F0BD00000000014000040140BA
:103B9000F0B5026A036A23F4807303624368C46960
:103BA00022F4007224F073050C68124E2C438D68C9
:103BB00042EA05220E4DA84201D0B04206D1CF689C
:103BC00022F4006242EA072222F48062A84201D075
:103BD000B04207D14D6923F4405343EA05138D6980
:103BE00043EA05134360C4614968C1630262F0BDE2
:103BF000000001400004014030B5046A026A22F46A
:103C0000805202624268C3690D6823F4E64343EAC6
:103C100005238D6824F4005444EA0534084DA84275
:103C200002D0084DA84204D14D6922F4804242EAF4
:103C300085124260C36149680164046230BD0000BE
:103C4000000001400004014010B5036A046A24F03A
:103C500001040462846924F0F00444EA021423F0AD
:103C60000A020A438461026210BD10B5036A046A45
:103C700024F010040462846923F0A00324F4704447
:103C800044EA023243EA01118261016210BD10B5BB
:103C9000806B0021C185FFF7ABFA10BD01680C31C4
:103CA00051E8002F22F4907241E80023002BF5D157
:103CB0000168143151E8002F22F0010241E800238D
:103CC000002BF5D1016B012909D101680C3151E8B4
:103CD000002F22F0100241E80023002BF5D1202113
:103CE00080F8421000210163704708B590F8421037
:103CF000222901D0022008BD82684FF480539A42E5
:103D000001D1016921B1816A9A421BD04AB10AE00E
:103D10000268816A5268C2F308020A80816A891CBB
:103D200008E0026972B10268526802F07F020A700C
:103D3000816A491C8162C18D491E0904090CC18533
:103D400003D01BE002685268F1E70168CA6822F0FC
:103D50002002CA600168CA6822F48072CA600168E1
:103D60004A6922F001024A61202180F842100021B4
:103D70004163026B012A03D0FFF77EFC002008BDDF
:103D8000016301680C3151E8002F22F0100241E874
:103D90000023002BF5D101680A68D20602D50A6813
:103DA00049680091818DFFF751F9E7E770B5044646
:103DB00000680169E26821F4405111430161216901
:103DC000A068E26908436169114308432168CA6831
:103DD00049F20C639A430243CA6020684169A269B0
:103DE00021F440711143416131492068884202D079
:103DF0003049884202D1FEF791FC01E0FEF77EFCDB
:103E0000E2690023192164253226B2F5004F626869
:103E100028D0A0FB0101930F9200FCF733FA014672
:103E2000B0FBF5F06FF01802504301EB800006EB99
:103E30000010B0FBF5F000F0F002B1FBF5F002EB82
:103E40000012B1FBF5F06FF01803584301EB80004E
:103E500006EB0010B0FBF5F000F00F0021681044F5
:103E6000886070BDA0FB010192185B41FCF70AFA63
:103E70000146B0FBF5F00201B1FBF5F06FF018035D
:103E8000584301EB800006EBC000B0FBF5F000F0FA
:103E9000F80002EB4002B1FBF5F0584301EB800063
:103EA00006EBC000B0FBF5F000F00700D6E700001D
:103EB000001001400014014081628285C28500210A
:103EC0004164222180F84210016921B10168CA6869
:103ED00042F48072CA6001684A6942F001024A6194
:103EE0000068C16841F02001C160002070470000F7
:103EF0000148FFF77FB90000080100200148FFF7E3
:103F000079B9000050010020FEE70907090E0028DA
:103F100004DB00F1E02080F80014704700F00F008F
:103F200000F1E02080F8141D704700000000000040
:103F300030B52DED048B81B0B0EE408AF0EE608A92
:103F40006A4651EC180B00F02FF900989FED329B58
:103F50007E300090002821DC53EC192B51EC180B1B
:103F600000F0DCFA1AD0002140F608004FF0000003
:103F7000044651EC180B00F08BFA08EE100A40F6DC
:103F8000080004EA00014FF00000B5EEC08AF1EE2F
:103F900010FA04BF0220FCF766FA2DE00098FF2813
:103FA00030DB002108464FF0000000F4400553ECE0
:103FB000192B51EC180B00F057FC8CBF0024012486
:103FC0000220FCF750FA9FED168A4DB1002C0CBF71
:103FD0004FF400004FF48000A84218BF9FED118AF3
:103FE000042108464FF00000002C01BFB1EE480A42
:103FF00001B0BDEC048B30BDB0EE480A01B0BDECA1
:10400000048B30BD51EC180B00F042FA01B000EE09
:10401000100ABDEC048B30BD000000000000000061
:104020000000807FFFFF7F7F30B583B00446FCF740
:1040300015FA9FED090B05468DED000B0022214678
:104040006846FCF735FA2846FCF70DFA9DED000BA3
:1040500003B030BD000000000000000000000000C0
:1040600030B540F2FF742DED048BF0EE608A18EE4F
:10407000901A85B0B0EE408A9FED2B9B05468DEDE2
:10408000008B34EA115147D053EC192B51EC180B2B
:1040900000F044FA40D02A4651EC180B00F059FCCD
:1040A00041EC180B18EE900A8DED008B34EA10509D
:1040B0001CD053EC192B51EC180B00F02FFA2BD11C
:1040C0000220FCF7D0F900F043F810EE901A18EE39
:1040D000900A8DED020B8DED008B61F31E000390B5
:1040E0009DED020B05B0BDEC048B30BD0220FCF74A
:1040F000BAF900F01DF810EE901A18EE900A8DED46
:10410000020B8DED008B61F31E0003909DED020B01
:1041100005B0BDEC048B30BD05B0B0EE480AF0EE42
:10412000680ABDEC048B30BD0000000000000000F8
:104130009FED050B10B553EC102B51EC100B00F05C
:1041400095FA41EC100B10BD00000000000000705B
:104150009FED050B10B553EC102B51EC100B00F03C
:1041600085FA41EC100B10BD0000000000000010AB
:1041700010B5044691ED000BFFF7DAFE84ED000A5E
:1041800010BD10B5044690ED000B0846FFF768FF20
:1041900084ED000B10BD30380A2801D20120704791
:1041A000002070470000000010B582B01446CDE931
:1041B00000010023009A2360194B21F0004098422F
:1041C0002ADA024328D0B0F5801FA8BF226810DA8F
:1041D0009FED150B53EC102B9DED000B51EC100BCC
:1041E00000F044FACDE900016FF0350221F0004003
:1041F00022600F4B6FF31E5103EB205010442060E0
:1042000041F0FF5040F0005001909DED000B00BFC9
:1042100002B051EC100B10BD9DED000BF8E7000053
:104220000000F07F0000000000000000000050438C
:1042300002FCFFFF2DE9F04100262DED028BF0EE90
:10424000408A9FED120A104C114DC0EE280A6327D8
:10425000BCEEE08A2068476318EE100AFEF704F807
:104260002068466318EE100AFDF7FEFF2878022842
:1042700006D195ED010AF4EE408AF1EE10FAE9D08C
:10428000BDEC028BBDE8F081780000200000FA430D
:104290000000002070B5B1EE041A2DED028BF0EE97
:1042A000408AB0EE000A154C68EE800A144E81EE8A
:1042B000200ABCEEC08A00252068456318EE100A6B
:1042C000FDF7D2FF6D1C642DF6DB63252068456386
:1042D00018EE100AFDF7C8FF6D1EF7D530780328D9
:1042E00006D196ED020AF4EE408AF1EE10FAE2D021
:1042F000216832204863BDEC028B70BD780000203D
:10430000000000200249002009684863704700004F
:10431000780000209FED0A1B10B553EC112B51ECD7
:10432000100B00F0A3F99FED081B53EC112B00F0CC
:104330009DF900F02FF906490968486310BD000097
:104340000000000000005940000000000000703F25
:1043500078000020FEF7A6F8FFF7DAFAFFF718FA60
:10436000FFF7D8F9314830494FF4E13500240160B6
:10437000C0E901540C26C460C0E904468461C461EC
:10438000FFF778F808B172B6FEE7284828494830A8
:104390000160C0E90154C460C0E904468461C4619D
:1043A000FFF768F808B172B6FEE7FFF727FAFFF7E4
:1043B0007FF9FFF771FA1D4800219038FEF7BAFD2A
:1043C0001A491922F031A1F1A800FEF717FE17488B
:1043D00090300068016821F00801016013484838F6
:1043E000FEF73EFC134C1349104801221031D83817
:1043F000FDF7C0FC207850B101280DD002280ED066
:104400000328F0D194ED020AFFF744FFEBE794EDA7
:10441000060BFFF77FFFE6E7FFF774FFE3E794ED96
:10442000010AFFF707FFDEE7001001400801002046
:10443000004400400000002010B500290AD0087890
:10444000002807D005487844FCF74CFB002801D031
:10445000002010BD0248784410BD00008A0600000C
:104460008206000010B500290AD00878002807D07D
:1044700005487844FCF736FB002801D0002010BD29
:104480000248784410BD00007A0600007206000061
:1044900021F00042A2F16052B2F5801F01F000430A
:1044A00028BFD2F17F6C0BD95FEA001C43EAC2023D
:1044B00042EB507018BF704728BF20F001007047D2
:1044C000B2F5801FBCBF184670474FEA410C1CF57F
:1044D000001F02D2084600F002BA70B500F070F971
:1044E00000000089FFF7F6BF4FF00040A0F5800004
:1044F0007047000002494FF0000000F0F8B900BF1B
:104500000000F87F491058BFC1F140415B1058BF0F
:10451000C3F140438B42EFF30080704751EA030C34
:1045200017D41CF5801F58BFBCF5801F00F1068012
:10453000994218BF704708BF9042704707D711F5DE
:10454000801F58BF13F5801F19D4994270478942C4
:1045500070471CF5801F08D5BCF5801FF7D58B422E
:1045600018BF704708BF824270474FF4001C1CEB15
:10457000410F38BF1CEB430F01D28B42704770B51F
:1045800000F01EF9922449004FF000514FF0805383
:10459000FFF7B8BF4FEA41034FEA5353A3F58063D7
:1045A000D3F11E03C8BFD3F1210C0CDD4FF0004244
:1045B00042EAC12242EA505232FA03FC8CEAE17C20
:1045C000ACEBE1707047102BC4BF0020704703F5BF
:1045D000787CBCF1FF3F04D06FF0004282EA2100FA
:1045E000704770B500F0ECF84992248000207047C5
:1045F000F2E7000051EA030C17D41CF5801F58BFE6
:10460000BCF5801F00F10680994218BF704708BFB3
:104610009042704707D711F5801F58BF13F5801FD0
:1046200019D499427047894270471CF5801F08D5FC
:10463000BCF5801FF7D58B4218BF704708BF824278
:1046400070474FF4001C1CEB410F38BF1CEB430FAD
:1046500001D28B42704770B500F0B2F89224490045
:104660004FF000514FF08053FFF74CBFDFF848C1C7
:1046700070B51CEA111E1EBF1CEA13159EEA0C0F32
:1046800095EA0C0F00F06F8081EA030423EA4C13D3
:104690004EEAD47E21EA4C1141F4801143F4801398
:1046A000AE44A1FB024CA0FB0365AEF17F7E361940
:1046B00055EB0C05A1FB034C4CF10003A0FB021CC5
:1046C00016EB0C06654153F10003094218BF46F092
:1046D000010613F4007F0BD14FEA03314FEA053096
:1046E000340341EA155140EA16506FF003020AE024
:1046F0004FEAC3214FEAC520F40241EA555140EA8E
:1047000056506FF0020202EB2E4201EB025585EA91
:10471000CE710AD05FEA440C18BF24F0004450F177
:10472000000041F1000120EAD47040F2FE7C6245B5
:1047300000D270BDA84214BF4FF080444FF04044F7
:10474000002E08BF0024BEF1806FA8BFA1F1C041B8
:10475000BDE8704080F282804FF0000001F1C0415E
:1047600001F0004170479EEA0C0F0CEA131518BFC8
:1047700095EA0C0F06D04FF0000081EA030E0EF010
:10478000004170BD00F01CF88900013E00F007B840
:1047900000F009B84FEA430C5FEA5C5C08D081EA9C
:1047A000030100F05BB84FEA410C5FEA5C5CF6D1B4
:1047B0004FF00000014970470000FF070000F87F3C
:1047C0000EF1020E2EF0030E5EF8046B364205D495
:1047D000012A43EB030515F5001F12D8012841EB10
:1047E000010C1CF5001F0CD80ED14FEAD17C15F539
:1047F000001F0CEB4C0C0CF1020C08BF4CEBD37CF3
:1048000004E04FF0080C01E04FEAD37C0CEB4C05C0
:1048100026FA05F606F00706B6F1040C06D20EEBF2
:10482000860CBDE870404CF0010C6047DFE80CF0EE
:10483000090B02024FF000414FF00000A1F50021EA
:1048400070BD19461046012851EB010418BFD4F57C
:10485000001484BF002001F0004170BD0808A0F5DD
:1048600000114FEA3101704753EA010C17D41CF5CF
:10487000801F58BFBCF5801F00F106808B4218BF17
:10488000704708BF8242704707D713F5801F58BF93
:1048900011F5801F19D48B4270479B4270471CF55D
:1048A000801F08D5BCF5801FF7D5994218BF704707
:1048B00008BF904270474FF4001C1CEB430F38BFF9
:1048C0001CEB410F01D2994270470FB40CBC03BCE2
:1048D000FFF7C1BE4FF04070E1EE100A7047FF21B4
:1048E00041EAD050C00570474FF0000070470CF00F
:1048F0000F03092B08BF082000F05F800A2B0BD0A4
:10490000082B18BF704708BF1CF0400F0AD04FF0AB
:1049100000004FF0000170471CF0400F18BF4FF02F
:10492000004070471CF0100F08D020F0704300F0DA
:104930007F4242EAD3014FEA4370704700F0604083
:1049400021F07F4242EA000201F07F4040EA7270AB
:1049500070474FF0FF0C4CF4E06C1CEA11531CBF85
:104960009CEA030C9445C2BFDA4201EB0251704746
:10497000002B0DD0BCF1000F0FD0002A01F0004138
:10498000A4BF41F0E04141F07F614FF0000070476B
:1049900001F000414FF00000704750EA01334FF042
:1049A0009B0C18BF4CF0806C7FF4A4AD7047FBF7F4
:1049B00039BFFCF753B9FCF7E1BA1CF4801F11D0E2
:1049C0001CF4E02F03D06FEACC31490070474FF060
:1049D0004050EFF3008222F0704242EA000282F37C
:1049E000008870474FF00000704700061016000660
:1049F000101600000000000000000102030406077A
:104A00000809000000000102030400000240000049
:104A1000000000A00000000005400000000000C8E9
:104A2000000000000C4000000000409C000000005E
:104A3000194000000020BCBE00000000344000000F
:104A4000BFC91B8E00000004B5400000504BCFD002
:104A50006607E2CF010000006C4100003E8251AACF
:104A6000DFEEA73401000000D9420000DCB5A0E26F
:104A70003A301F97FFFFFFFFB4450000FD25A0C897
:104A8000E9A3C14FFFFFFFFFFF3F000000000080D0
:104A900000000000FF3F0000000000800000000058
:104AA000FC4B00080000002030000000C40100089A
:104AB0002C4C000830000020D8090000E00100085C
:104AC000000000000000F07FFFFFFFFFFFFFEF7F0F
:104AD0001C00000043000000F8FFFFFF0C00000076
:104AE0000E0000000F0000002E000000100100006A
:104AF00043000000F8FFFFFF0040404040404040BE
:104B000040404141414141404040404040404040A0
:104B10004040404040404040400502020202020244
:104B20000202020202020202022020202020202093
:104B300020202002020202020202909090909090A7
:104B40001010101010101010101010101010101065
:104B500010101010020202020202888888888888D9
:104B600008080808080808080808080808080808C5
:104B700008080808020202024000000000000000CD
:104B80000000000000000000000000000000000025
:104B90000000000000000000000000000000000015
:104BA0000000000000000000000000000000000005
:104BB00000000000000000000000000000000000F5
:104BC00000000000000000000000000000000000E5
:104BD00000000000000000000000000000000000D5
:104BE00000000000000000000000000000000000C5
:104BF00000000000000000000000000001000000B4
:104C000000000000000000000000000000000000A4
:104C100000000000000000000000604001000000F3
:0C4C200010000000000000000024F40060
:040000050800018965
:00000001FF
